:04000000020069325F
:01000B0032C2
:0100130032BA
:01001B0032B2
:0100230032AA
:01002B0032A2
:01003300329A
:01003B003292
:01004300328A
:01004B003282
:01005300327A
:03005B0002125E30
:0300630002125F27
:0400C200C200D201A5
:0300CA00020066CB
:030066000200CDC8
:2000CD0090811BE4F0121B7E9081087404F0758202121AD5D206758203121B1075820012D5
:2000ED000BCF1211BF43A880121257AF82BF02F8C206758203121B10121257AF82BF03F802
:20010D0090C7C774FFF090811BE0E070051204E4801890811BE0FFBF01051206FB800B9060
:20012D00811BE0FFBF0203120B45121ABA50D712014180D2121AC3AE82AF83C007C006126E
:20014D001257AD82D006D007BD030050030204D58E828F83A3E0FDBDFF06121AC70204D82A
:20016D00BD01128E828F83A3A3E0FBA3E08B82121048021AC7BD03128E828F83A3A3E0FB6D
:20018D00A3E08B82121076021AC7BD023074062EF582E43FF583E0FBA3E0FCBB0505BC00C3
:2001AD00028003021ACE90C7C57401F090C7B4E0FC20E3F890C6C01210DE021AC7BD041294
:2001CD008E828F83A3A3E0FBA3E08B82121096021AC7BD05128E828F83A3A3E0FBA3E08B7F
:2001ED00821210A9021AC7BD06128E828F83A3A3E0FBA3E08B821210B7021AC7BD204A74C3
:20020D00022EFBE43FFC8B828C83E0F9A3E04924FF9202C004C0031210C5D003D0048B82ED
:20022D008C83E0F9A3E04924FF920090810B74FFF0A3F08B828C83E0FBA3E04B24FF9206B6
:20024D00758201121B10021AC7BD10128E828F83A3A3E0FBA3E04B24FF9201021AC7E4BD4F
:20026D00210104FC70030204648E828F83E0FBBB400280030204649080847401F090808002
:20028D00E4F074062EFAE43FFB8A828B83E0F8A3E0F9C3E89401E994005003021ACE8E8245
:2002AD008F83A3A3E0F8A3E0F988148E828F83A3A3A3A3E0F510A3E0F511C3747D9510E490
:2002CD009511500875127D7513008006851012851113A912C003C002C00112108FA882D005
:2002ED0001D002D003B802069080847402F090C7C57401F090C7B4E0F820E3F8C0018A8265
:20030D008B83E0F8A3E0F990811274C0F074C6A3F0E4A3F0908115E8F0E9A3F090800075E4
:20032D00F000C003C002C001121BB6D001D002D003908081E514F0E4A3F0908084E0F514B3
:20034D00D001C002C00389007B0008B800010B908081E0F512A3E0F513C3E51298E51364B9
:20036D00808BF063F08095F0D003D0024003020461908080E0F8C3648094BF4003020461C2
:20038D00C001A8128882C003C002C001121048D001D002D0038A828B83E0F8A3E0F9908027
:2003AD00E4E8F09080E57440F07480A3F09080E77483F07480A3F0E4A3F0908000C003C0E5
:2003CD0002C001120ED1858210D001D002D003D001E5106010908080E0F804F0888275833B
:2003ED00C7E512F8F090810B7402F0E4A3F0C206758203C003C002C001121B10D001D00269
:20040D00D003E5106016D206758202C003C002C001121B10D001D002D0038014D206758264
:20042D0001C003C002C001121B10D001D002D003C001E514F5123395E0F513908081E0F8DB
:20044D00A3E0F9908081E51228F0E51339A3F0D00102034F021AC7EC603D8E828F83E0FC20
:20046D00BCC03474062EF582E43FF583E0FBA3E0FC908080E0F93395E0FAC3E99BEA9C5083
:20048D000280048B018C0290C7B5E9F090C7B4E0FC20E2F8021AC7BD222E8E828F83E0FDFA
:2004AD00BD40258E828F83A3A3E0FEA3E090811BEEF0E0FFBF0208758201121185800675F7
:2004CD008200121185021AC7021ACE75A800121248120C2D02780090C7C6E0FF30E101229A
:2004ED003000012290C7C7E0FF908085F0C374C08FF063F08095F050069080857440F0902D
:20050D008085E0FFFD3395E0FE9081127440F074C6A3F0E4A3F0908115EDF0EEA3F09080A8
:20052D000075F000C007121BB6D00790C7C77401F0200103020636C374A08FF063F0809525
:20054D00F050069080857420F0908085E09080E4F09080E57440F07480A3F09080E77486C5
:20056D00F07480A3F0E4A3F0908000120ED1AE8290810B7402F0E4A3F0C206758203C006CE
:20058D00121B10D006EE600ED206758202C006121B10D006800CD206758201C006121B10D6
:2005AD00D006EE60047D0180027D00908087EDF0ED602BC006C005121172E582D005D0066B
:2005CD00600790808774024DF0C006121178AD82D006EDC454F0FD908087E0FC4DF090C7FE
:2005ED00B67402F0908087E0FD90C680F0EE20E505908086E4F0908086E0FE3395E0FD908D
:20060D0081127440F07480A3F0E4A3F0908115EEF0EDA3F090C68175F000121BB69080865F
:20062D00E0FE0E90C7B7EEF022C374A08FF063F08095F0400D9080ECEFF0908000120F7834
:20064D0080609080ECC2D575F002EF30E704B2D5F4048430D502F404F0908000C007120FBF
:20066D0078D007C2D575F002EF30E704B2D5F4048430D502F404FDA2D595E0FEED2400FD1F
:20068D00EE3480FE9080ECC2D575F002EF30E704B2D5F4048430D502F404F08D828E831285
:2006AD000F7890810B7402F0E4A3F0C206758203121B10D206758202021B10E58290808AAF
:2006CD00F090C7B6E0FF20E1F890C6807430F090808AE090C681F0908088E090C682F090BD
:2006ED008089E090C683F090C7B77404F02290C7C6E0FF30E101223000012290C7C7E0FF23
:20070D009080CBF0C374C08FF063F08095F050069080CB7440F09080CBE0FFFD3395E0FE01
:20072D009081127440F074C6A3F0E4A3F0908115EDF0EEA3F090800075F000C007121BB6FE
:20074D00D00790C7C77401F09080CCE4F09080CDF09080CCE0FEC364808FF063F08095F07D
:20076D004003020B0B9080CCEE04F0EE2400F582E43480F583E0FE600FBE01030209FFBEE3
:20078D000303020A77020AEFEFFC3395E0FD9080CCE0FBF93395E0FAECC399F9ED9AFAC361
:2007AD00E99403EA64809480501B908088EEF0908089EBF0758201C0071206C8D0079080EF
:2007CD00CCEFF0808CC0069080CCEB04F0EB2400F582E43480F583E0F5159080CCE0FA049A
:2007ED00F0EA2400F582E43480F583E0FA9080CCE0F989163395E0F5178A037E00EB251654
:20080D00FBEE3517FEECC39BFCED9EFDD00630E71C908088EEF0908089E9F0758201C0071A
:20082D001206C8D0079080CCEFF002075EE92400FCE43480FD9080E4EAF09080E5748BF082
:20084D007480A3F09080E774CEF07480A3F0E4A3F08C828D83C007C002C001120ED1AD8255
:20086D00D001D0029080CCEA29F090810B7402F0E4A3F0C206758203C005121B10D005D087
:20088D0007ED6012D206758202C007C005121B10D005D0078010D206758201C007C00512A1
:2008AD001B10D005D0079080CDE0FC3395E0FB9080CEE0F93395E0FAE92CFCEA3BFB7404F6
:2008CD002CFCE43BFBC374409C74808BF063F08095F0504690C7B6E0FC20E1F89080CDE0BA
:2008ED00FCFA3395E0FB9081127440F07480A3F0E4A3F0908115EAF0EBA3F090C68075F0D4
:20090D0000C007C005C004121BB6D004D005D00790C7B7ECF09080CDE4F0ED60027401FCBC
:20092D009080CFECF0EC6033C007C005C004121172E582D004D005D00760079080CF7402E8
:20094D004CF0C007C005121178AC82D005D007ECC454F0FC9080CFE0FB4CF0ED20E50590E0
:20096D0080CEE4F09080CDE0FD2440F582E43480F583E4F0ED042440F582E43480F583E50E
:20098D0015F074022D2440FBE43480FC9080CFE08B828C83F074032D2440FBE43480FC90BD
:2009AD0080CEE08B828C83F074042D2440FBE43480FC7A009080CEE0F83395E0F990811264
:2009CD00748BF07480A3F0E4A3F0908115E8F0E9A3F08B828C838AF0C007C005121BB6D0CE
:2009ED0005D0079080CEE0FC24049080CD2DF002075EEFFC3395E0FD9080CCE0FBF93395C3
:200A0D00E0FAECC399FCED9AFDC3EC9401ED648094804018EB2400F582E43480F583E0FD33
:200A2D00C374FD8DF063F08095F050219080CCE0FD908088EEF0908089EDF0758201C007CB
:200A4D001206C8D0079080CCEFF002075E9080CCEB04F0EB2400F582E43480F583E0F58208
:200A6D00C007121048D00702075EEFFC3395E0FD9080CCE0FBF93395E0FAECC399FCED9A4D
:200A8D00FDC3EC9401ED648094804018EB2400F582E43480F583E0FDC374838DF063F0804E
:200AAD0095F050219080CCE0FD908088EEF0908089EDF0758201C0071206C8D0079080CC3C
:200ACD00EFF002075E9080CCEB04F0EB2400F582E43480F583E0F582C007121076D00702E3
:200AED00075E9080CCE0FD908088EEF0908089EDF0758200C0071206C8D00702075E9080F3
:200B0D00CDE0FF603290C7B6E0FE20E1F89081127440F07480A3F0E4A3F0908115EFF0EFED
:200B2D003395E0A3F090C68075F000C007121BB6D00790C7B7EFF0221211B3401E90810B52
:200B4D007402F0E4A3F0D206758202121B1090C680120E15AF8290C7B7EFF090C7C6E0FF78
:200B6D0020E14420004190C7B67402F090C7C7E0FF9080D0F0C374A08FF063F08095F05084
:200B8D00069080D07420F09080D0E0FF9080DC7440F074C6A3F09080DEEFF0758200120DDF
:080BAD00AC90C7C77401F022EF
:011D170000CB
:200BB500E5829080D1F0E0F5E5C2C010C00280FB85E58222758200020BB5E5829080D2F05F
:200BD50075900675E610E0FFFEBE00028005BF011C800E9080D4747EF0758200120C8E8015
:200BF5000C9080D4743FF0758200120C8E7EE87F031EBEFF011FEE4F70F79080D47407F0D4
:200C150075821D120C8E9080D47401F075821C120C8E121016020FB09080D4E4F07582004F
:200C3500120C8E75900075E60022C2917582FF120BB5AF82D2918F8222C2917582E1120B47
:200C5500B5AF82D2918F8222C2917582E2120BB5AF82D2918F8222E5829080D3F0C2919021
:200C750080D3E0FF53071F8F82120BB57582A5120BB5AF82D2918F8222E5829080D5F0C29E
:200C9500919080D5E0FF741F5F4420F582120BB59080D4E0FFF582C007120BB5D007D2913E
:200CB5008F8222AF83E5829080D7F0EFA3F0C2917582A0120BB59080D7E0FEA3E0FF9080E7
:200CD500D6E0FD7B007C00EDF93395E0FAC3EB99EC64808AF063F08095F05029EB2EF582DB
:200CF500EC3FF583E0F582C007C006C005C004C003120BB5D003D004D005D006D0070BBB4B
:200D150000C50C80C2D291D2907E327F008E048F051EBEFF011FEC4D70F3C29022AF83E56F
:200D3500829080DAF0EFA3F0C2917582B0120BB59080DAE0FEA3E0FF9080D9E0FD7B007CED
:200D550000EDF93395E0FAC3EB99EC64808AF063F08095F05029EB2EF582EC3FF583E0F58C
:200D750082C007C006C005C004C003120BB5D003D004D005D006D0070BBB00C50C80C2D25D
:200D950091D2907E327F008E048F051EBEFF011FEC4D70F3C29022E5829080DFF0C29190C2
:200DB50080DFE0FF740F5F44A8F582120BB59080DCE0FEA3E0FF9080DEE0FD7B007C00EDCE
:200DD500F93395E0FAC3EB99EC64808AF063F08095F05029EB2EF582EC3FF583E0F582C0B7
:200DF50007C006C005C004C003120BB5D003D004D005D006D0070BBB00C50C80C2D291226C
:200E1500AF83E5829080E0F0EFA3F0C291758260120BB5120BC9E582FE3395E0FF9080E262
:200E3500EEF0EFA3F0D291C3E49E74808FF063F08095F05076C3EE9421EF64809480506BFC
:200E5500C291758261C007C006120BB5D006D0079080E0E0FCA3E0FD7A007B00C3EA9EEB4F
:200E750064808FF063F08095F0503CC006C007EA2CF8EB3DF9C006C005C004C003C002C0C6
:200E950001C000120BC9AF82D000D001D002D003D004D005D00688828983EFF00ABA0001E6
:200EB5000BD007D00680B5D29180079080E2E4F0A3F09080E2E0FEA3E08E8222AF83E582CF
:200ED5009080EAF0EFA3F09080EAE0FEA3E0FF9080E4E09080D6F08E828F83120CB8120C77
:200EF5003FAF828F06EE547060F49080D47470F0758207C007120C8ED007EF30E407120CAA
:200F15004E75820022EF30E6389080E7E0FCA3E0FDA3E0FE9080E5E0FAA3E0FB8A828B83DD
:200F3500C007C006C005C004120E15AB82D004D005D006D0078C828D838EF0EB121C2A806F
:200F5500159080E7E0FCA3E0FDA3E0FE8C828D838EF0E4121C2AC007120C5DD00753072028
:200F75008F8222AF83E5829080EDF0EFA3F09080EDE0FEA3E0FF9080ECE09080D9F08E82FF
:200F95008F83120D32120C3FE582FF547060F69080D47470F0758207020C8E90811FE0FF9B
:200FB50030E734747F5FFE24DF50047E208004747F5FFE7D0090811CE075F006A42465FB9B
:200FD500741C35F0FCED2BF582E43CF583E493FCC39E500C0D80DE9080EF740F5FF0800533
:200FF5009080EFEDF09080EFE0C454F0FF90811EE0FE53060F9080D4EE4FF0758204020C8B
:201015008E90811CE0901C7793FF90811DE025E0FE42079080F0EFF0908120E060079080AA
:20103500F074904FF09080F0E09080D4F0758206020C8EE5829080F1F0E0FF20E70CC3749A
:20105500FD8FF063F08095F0500122C2909080D4EFF0758205120C8E908120E06002D290A2
:2010750022E5829080F2F0E0FFBF030040012290811CEFF0121016020FB090811CE0F58253
:2010950022E5829080F3F0E0FF53070390811DEFF0021016E5829080F4F0E090811FF002F1
:2010B5000FB0E5829080F5F0E090811EF0020FB03002047F0180027F00908120EFF0C29027
:2010D500121016300202D29022AF83E5829080F6F0EFA3F0C291758230120BB59080F6E0C8
:2010F500FEA3E0FF7C007D00EC2EF582ED3FF583E0F582C007C006C005C004120BB5D0041A
:20111500D005D006D0070CBC00010DC3EC9405ED6480948040D2D291C29175822AC007C0C5
:2011350006120BB5D006D0077C007D00EC2EF582ED3FF583E0F582C007C006C005C0041268
:201155000BB5D004D005D006D0070CBC00010DC3EC9405ED6480948040D2D29122758209CA
:20117500020C6C758208120C6CE582540FF58222E5829080F8F0E0FFFEBE00028005BF01B3
:201195001C800C9080D4747EF0758200020C8E9080D4747FF0758200120C8ED29022758254
:0A11B50017120C6CE582139203225E
:151C65000000081018200F20000000000520000000002000089E
:051D1800020303A0001E
:0400C600C204C205A9
:2011BF00908121E4F075A04090C7D6E04404F07C507DC37E007F001CBCFF091DBDFF051E8B
:2011DF00BEFF011FEC4D4E4F70ED90C7D6E054FBF090C7DEE4F090C7ACF090C7DFF090C71B
:2011FF00ADF090C7E0F090C700F090C7AE7418F090C7A974FFF090C7AAF090C7ABF090C7A7
:20121F00817420F090C78223F090C7837460F090C7887440F090C78903F090C78A23F09046
:20123F00C78B7460F043B81822908121E4F0AFB874E75FF5B8D2A522908121E0F5822232FA
:20125F00C021C0E0C0F0C082C083C007C006C005C004C003C002C001C000C0D075D0089030
:20127F00C7A8E0FF6063BF0403021339BF0803021385BF0C0302138EBF1003021397BF1800
:20129F00030213C2BF1C030213D6BF20030213EABF24030213F2BF28030213FABF2C0302D5
:2012BF001402BF300302140ABF3403021412BF380302141ABF3C03021422BF400302142A27
:2012DF00BF440302143202143890C7E8E0FF54606002800B75D00012155875D00880329041
:2012FF00C7E8E0FF530F60BF400B75D0001219E675D008801C90C7E8E0FF530F60BF200B6C
:20131F0075D0001219E975D008800690C7B47401F090C7AB7401F002143890810BE0FEA3C0
:20133F00E0FF20E7388E0C8F0D1EBEFF011F90810BEEF0EFA3F0EC4D7023C20675820175C2
:20135F00D000121B1075D008C20675820275D000121B1075D00890810BE4F0A3F090C7ABFF
:20137F007402F002143890C7AB7404F002143890C7AB7408F00214389081217401F090C738
:20139F00DEF090C7DFF090C7C5F090C7ACF090C7ADF090C7AEE04405FFF090C7AB7410F0B4
:2013BF0002143875820075D00012145675D00890C7A97401F0806275820075D000121455BD
:2013DF0075D00890C7AA7401F0804E90C7A97402F0804690C7AA7402F0803E90C7A97404A4
:2013FF00F0803690C7AA7404F0802E90C7A97408F0802690C7AA7408F0801E90C7A9741070
:20141F00F0801690C7AA7410F0800E90C7A97420F0800690C7AA7420F0D0D0D000D001D084
:20143F0002D003D004D005D006D007D083D082D0F0D0E0D0213222E582908101F0E0FFC2FE
:20145F00D575F007EF30E704B2D5F404A430D50AF42401C5F0F43400C5F024FAFD74803501
:20147F00F0FE74012DFBE43EFC8B828C83E0F9A3E0FAC3E99440EA64809480500280047981
:20149F00407A008D828E83E070030215578D828E83A3A3A3A3A3E0F8A3E0FA74032DF5183D
:2014BF00E43EF519C005C006851882851983E0FDA3E0FEED28F8EE3AFA908102E8F0EAA30D
:2014DF00F07480A3F0908105E9F08F82C006C005C004C003C0011219F0D001D003D004D040
:2014FF0005D0068B828C83E0FEA3E0FF89027D00EEC39AFEEF9DFF8B828C83EEF0EFA3F01E
:20151F00851882851983E0FBA3E0FCEA2BFAED3CFD851882851983EAF0EDA3F0EE4FD00630
:20153F00D0057014B94002800F8D828E83E4F0851882851983F0A3F022908121E0FFBF01FF
:20155F0000500302175890C7E9E0FEBE060280030215EA90C7EBE0FEBE017090C7EFE0FDCE
:20157F007E0090C7EEE07B002EFEEB3DFD9080FF748AF0741CA3F08E038D049080FFE0F5B7
:20159F001AA3E0F51B901C8AE493F83395E0FAC3EB98EC64808AF063F08095F0400E851A63
:2015BF0082851B83E493FCFE3395E0FD9080FBEEF0EDA3F09080FDE4F0A3F09080FA04F076
:2015DF0090C7B404F075820002145690C7E9E0FEBE060280030216B690C7EBE0FEBE030272
:2015FF0080030216B690C7EFE0FD7E0090C7EEE0FC7B002EFEEB3DFD90C7EAE0700C908040
:20161F00FF74D5F0741CA3F0804190C7EAE0FCBC010C9080FF74D9F0741CA3F0802D90C736
:20163F00EAE0FCBC020C9080FF74EBF0741CA3F0801990C7EAE0FCBC1D0A121A2990C7B481
:20165F007402F02290C7B47401F0228E038D049080FFE0F9A3E0FA89828A83E493FAF83316
:20167F0095E0F9C3EB98EC648089F063F08095F04006EAFE3395E0FD9080FBEEF0EDA3F0BA
:20169F009080FDE4F0A3F09080FA04F090C7B404F075820002145690C7E9E0FEBE0656908F
:2016BF00C7EBE0FEBE024E90C7EFE0FD7E0090C7EEE07B002EFEEB3DFD9080FF749CF07458
:2016DF001CA3F08E038D04C3EB9439EC6480948040047E397D009080FBEEF0EDA3F09080CA
:2016FF00FDE4F0A3F09080FA04F090C7B404F075820002145690C7E9E0FEBE053C90C7EAA9
:20171F00E0FDA3E0FE4D70249081217401F090C7DEF090C7DFF090C7C5F090C7ACF090C733
:20173F00ADF090C7AEE04405FEF080069081217402F090C7B47402F022BF020050030218F2
:20175F00AC90C7E9E0FEBE096190C7EAE0FDA3E0FE4D70259081217402F090C7DEE054F9FD
:20177F00F090C7DFE054FDF090C7ADE054FDF090C7ACE054FDFEF0802A9081217403F090E9
:20179F00C7DEE04406F090C7DFE04402F090C7ADE04402F090C7ACE04402F090C7AEE044C3
:2017BF0002FEF090C7B47402F02290C7E9E0FEBE081CBF030890C7007401F0800590C70025
:2017DF00E4F090C7B57401F090C7B404F02290C7E9E060030218AC90C7E8E0FE530607BE00
:2017FF000202800302189890C7ECE06008BF030280030218AC90C7ECE0FDA3E0FEBD810E0C
:20181F00BE000B90C7B6E0FC90C700F0805BBD820EBE000B90C7B8E0FC90C700F0804ABD06
:20183F00830EBE000B90C7BAE0FC90C700F08039BD010EBE000B90C7C6E0FC90C700F080ED
:20185F0028BD020EBE000B90C7C8E0FC90C700F08017BD030EBE000B90C7CAE0FE90C700E5
:20187F00F0800690C7007401F090C701E4F090C7B57402F090C7B4F02290C700E4F090C7DA
:20189F0001F090C7B57402F090C7B4F022BF030050030219DF90C7E9E0FFBF0A1290C70049
:2018BF00E4F090C7B504F090C7B4E04402F02290C7E9E0FFBF0102800302195690C7E8E0FE
:2018DF00FE530603BE027090C7EAE0FDA3E0FE4D706590C7ECE0FDA3E0FEBD810ABE0007F0
:2018FF0090C7B6E4F08048BD820ABE000790C7B8E4F0803BBD830ABE000790C7BAE4F08000
:20191F002EBD010ABE000790C7C6E4F08021BD020ABE000790C7C8E4F08014BD030ABE00BE
:20193F000790C7CAE4F0800790C7B47401F02290C7B4E04402F022BF030280030219DF905F
:20195F00C7E8E0FF530703BF027690C7EAE0FEA3E0FF4E706B90C7ECE0FEA3E0FFBE810B8F
:20197F00BF000890C7B67401F0804DBE820BBF000890C7B87401F0803FBE830BBF0008905A
:20199F00C7BA7401F08031BE010BBF000890C7C67401F08023BE020BBF000890C7C87401B5
:2019BF00F08015BE030BBF000890C7CA7401F0800790C7B47401F02290C7B4E04402F0220E
:2019DF0090C7B47401F022D2052290C7B47401F022908102E0FDA3E0FEA3E0FF908105E0E2
:2019FF00FCFA7B00908112EDF0EEA3F0EFA3F0908115EAF0EBA3F090C70075F000C0041244
:201A1F001BB6D00490C7B5ECF02290C7007416F090C7017403F07E007F008E05ED2D25E0B9
:201A3F00FD24022400FBE434C7FCEE240DF9EF3481FA89828A83E0C4540FF8740F58901C16
:201A5F007A93F88B828C83F074032D2400F582E434C7F583E4F074042D2400FBE434C7FC4D
:201A7F0089828A83E0F9740F59901C7A93FA8B828C83F074052D2400F582E434C7F583E43F
:201A9F00F00EBE00010FC3EE9405EF648094805003021A3990C7B57416F022100502800241
:161ABF00D322C32290C7E82290C7B47402F02290C7B47401F022B1
:101C7A0030313233343536373839414243444546B8
:031D1D0000FFFFC5
:201C8A00120100020000004015197777559901021D010902200001010080320904000002CC
:201CAA00FFFF000007058102400006070501024000060000000000000000000000000000F2
:201CCA0000000000000000000000000403090412034200690074006300720061007A00659D
:201CEA00002C034300720061007A00790072006100640069006F0020005500530042002069
:0D1D0A000044006F006E0067006C00650073
:201AD500E582908109F0E0FF908106F0908108E0FE908107F08FF005F07401800225E0D556
:201AF500F0FBFF8EF005F07401800225E0D5F0FB4207EFF4FF5294EF528022E58290810A42
:201B1500F0E0FF30E030300617908106E0FE8EF005F07401800225E0D5F0FBFE42808016DA
:201B3500908106E0FE8EF005F07401800225E0D5F0FBF4FE5280EF30E12E30061590810717
:201B5500E0FF8FF005F07401800225E0D5F0FB428022908107E0FF8FF005F07401800225F6
:091B7500E0D5F0FBF4FF528022E0
:201B7E0043F8087E007F00EE240DFCEF3481FDEE240BF582EF3400F583E0FB8C828D83F033
:181B9E000EBE00010FC3EE9405EF6480948040D7AFF874F75FF5F8228B
:06009800E478FFF6D8FD3C
:201BB600AFF0AE83E582908117F0EEA3F0EFA3F0908117E0F522A3E0F523A3E0F524AA229B
:201BD600AB23AC24908112E0F8A3E0F9A3E0FF908115E0F525A3E0F526AD25AE2615257446
:201BF600FFB525021526ED4E6020888289838FF0121C45FEA3A882A9838A828B838CF0EE7B
:141C1600121C2AA3AA82AB8380CF8522828523838524F02207
:200076007909E94400601B7A01901D17781B75A081E493F2A308B8000205A0D9F4DAF27557
:02009600A0FFC9
:1B1C2A0020F71130F6138883A88220F509F6A8837583002280FEF280F5F022B9
:20009E007800E84400600A790075A080E4F309D8FC781BE84401600C7902908000E4F0A344
:0400BE00D8FCD9FA97
:0D006900758126121C61E5826003020066AD
:1C1C450020F71430F6148883A88220F507E6A88375830022E280F7E49322E022AE
:041C61007582002266
:00000001FF
